:100000000C942A000C9400000C9400000C94000046
:100010000C9400000C9400000C9400000C94000060
:100020000C9400000C9400000C9400000C94000050
:100030000C9400000C9400000C9400000C94000040
:100040000C9400000C9400000C9400000C94000030
:100050000C940000F894EE27ECBBF1E0FBBFEBBF83
:10006000E5BF8DE0A2E0BB27ED938A95E9F780E03C
:1000700098E0A0E6ED930197E9F7EFE5EDBFE8E042
:10008000EEBFC0E6D2E00C944500E0E0EABBEBBB7B
:10009000E7BBE8BBEFEFE4BBE0E0E5BBE1BBE2BB05
:1000A000E3BFE2BFECBFEFBDEEBDEDBDECBDE7BD14
:1000B000E6BDEBBDEABDE9BDE8BDE2BDE5BDE4BD21
:1000C000E3BDE9BFE5BFE4BFEAB9E0E8E8B9E0E0D5
:1000D000E0BFE6B9EDB9E6BFC89B13C0E1E0E5BB00
:1000E00000E010E00830E0E01E0754F4A4E6B0E0C1
:1000F0000E949C00E5B3EE0FE5BB0F5F1F4FF2CFF0
:1001000019C0C99B17C0E0E8E5BB00E010E008306B
:10011000E0E01E077CF4A4E6B0E00E949C00E5B39A
:10012000F0E0DF01E2E0F0E00E94BD00E5BB0F5F20
:100130001F4FEDCFD1CFFFCF109639F080ED97E074
:100140000197F1F7A8951197C9F70895F195E195F1
:10015000F04008950024112490E1AA0FBB1F001C59
:10016000111C0E1A1F0A18F40E0E1F1E01C0A160EA
:100170009A9599F7FD01D001089504D0EBDF0EF4B4
:10018000E5DF0895E894F7FF02C0E0DF6894B7FF69
:1001900006C0A095B095119600F8039400FA089552
:00000001FF
