:080000000C9456000C94000062
:100008000C9400000C9400000C9400000C94000068
:100018000C9400000C9400000C9400000C94000058
:100028000C9400000C9400000C9400000C94000048
:100038000C9400000C9400000C9400000C94000038
:100048000C9400000C9400000C9400002020202048
:1000580020202020202020202020202050726F6780
:1000680072616D6D65642062793A2053616A6164DA
:10007800204B686F73726176616E69203936313151
:10008800323030313320000048454C4C4F20574F18
:10009800524C440080C00C006002900002006C02C8
:1000A8009C000000F894EE27ECBBF1E0FBBFEBBF2F
:1000B800E5BF8DE0A2E0BB27ED938A95E9F780E0E4
:1000C80098E0A0E6ED930197E9F7EEE9F0E0859175
:1000D8009591009761F0A591B59105901590BF0194
:1000E800F00105900D920197E1F7FB01F0CFEFE5E4
:1000F800EDBFE8E0EEBFC0E6D2E00C948300EB97DA
:100108008BE3A0E0B0E0E4E5F0E00E94AD010BE392
:1001180010E0E0E0EABBEBBBE7BBE8BBE4BBE5BB58
:10012800E1BBE2BBE3BFE2BFECBFEFBDEEBDEDBD9F
:10013800ECBDE7BDE6BDEBBDEABDE9BDE8BDE2BD8E
:10014800E5BDE4BDE3BDE9BFE5BFE4BFEAB9E0E86A
:10015800E8B9E0E0E0BFE6B9EDB9E6BFA0E1AAD0B2
:10016800E3E0EA93A0E069D0A0E6B2E092D0FE0115
:10017800FA93EA931A930A93E1E0F0E0FA93EA9388
:10018800AFE0B0E002D0ECCFFFCFBA93AA9360976C
:100198000E949F0100E010E0EA8DFB8D0E171F07FB
:1001A80044F5E0E0EA93A98D48D0980140E050E09A
:1001B8004031E0E05E079CF4FA01DE011696EA0F92
:1001C800FB1F0F01F9012F5F3F4FAC8DBD8DAE0FA7
:1001D800BF1FEC91D001EC934F5F5F4FE9CFDE0179
:1001E800169657D0AE89BF890E9495010F5F1F4FA1
:1001F800D3CF0E94A6016E960895AA93EBB3EF7031
:10020800AE2FE881E07FEA2BEBBB8DE08A95F1F712
:10021800DA9A8DE08A95F1F7DA988DE08A95F1F708
:1002280072C0AA93A881E9DFE881E295E883A881F2
:10023800E4DF85E88A95F1F766C0AA93E881F0E0E3
:10024800E459FD4FE081A981AE0FEBDF598048806A
:1002580022960895A2E059D0ACE0E3DFA1E055D0A2
:10026800E0E04E2E5E2E0895AA93A881AA3011F0E0
:10027800571448F0E0E0EA934394A42DDEDFA88108
:10028800AA3009F440C05394D89AA881CADFD898F4
:100298003AC0BA93AA931A93A981BA81ED91A98316
:1002A800BA831E2FE03019F0A12FDEDFF5CF1881B9
:1002B80023960895AA93EAB3E06FEABBD29AD09A3C
:1002C800D19ADA98D898D9987880E881E058E0935C
:1002D8006E02E881E054E0936F02A4E1B0E00E946E
:1002E800950118D017D016D0A0E287DF88EC90E0EF
:1002F8000197F1F7A8E295DFA4E093DFA5E891DF85
:10030800A6E08FDFA7DF219608958BDFA3E0B0E09A
:100318000C949501A0E371DF88EC90E00197F1F768
:100328000895109639F080ED97E00197F1F7A895B8
:100338001197C9F708955A934A933A932A931A93AF
:100348000A9308955D814C813B812A811981088136
:100358000895AC0FBD1F05900D928A95E1F7089599
:00000001FF
