:020000000C945E
:100002002A000C9445000C9400000C9400000C94FF
:1000120000000C9400000C9400000C9400000C945E
:1000220000000C9400000C9400000C9400000C944E
:1000320000000C9400000C9400000C9400000C943E
:1000420000000C9400000C9400000C9400000C942E
:100052000000F894EE27ECBBF1E0FBBFEBBFE5BF7D
:100062008DE0A2E0BB27ED938A95E9F780E098E066
:10007200A0E6ED930197E9F7EFE5EDBFE8E0EEBF0B
:10008200C0E6D2E00C9466000A921A92FA926A933F
:100092007A938A939A93AA93BA93EA93FA93EFB7CD
:1000A200EA93D89AA2E3B0E00E949700D898E99127
:1000B200EFBFF991E991B991A991999189917991BA
:1000C2006991F990199009901895E1E0EABBE0E096
:1000D200EBBBE7BBE8BBE4BBE5BBE1BBE2BBE3BF19
:1000E200E2BFECBFEFBDEEBDEDBDECBDE7BDE6BDD1
:1000F200EBBDEABDE9BDE8BDE2BDE5BDE4BDE3BDE2
:10010200E9BFEBB7E064EBBFE3E0E5BFE0E0E4BFEB
:10011200E0E4EABFE0E0EAB9E0E8E8B9E0E0E0BF45
:10012200E6B9EDB9E6BF7894FFCFFFCF109639F06C
:1001320080ED97E00197F1F7A8951197C9F7089517
:00000001FF
